:020000040000FA
:1000000030040020F100000011010000D5000000C4
:1000100000000000000000000000000000000000E0
:1000200000000000000000000000000015010000BA
:10003000000000000000000017010000190100008E
:100040001B0100001B0100001B0100001B01000040
:100050001B0100001B0100001B0100001B01000030
:100060001B0100001B0100001B0100001B01000020
:100070001B0100001B0100001B0100001B01000010
:100080001B0100001B0100001B0100001B01000000
:100090001B0100001B0100001B0100001B010000F0
:1000A0001B0100001B0100001B0100001B010000E0
:1000B0001B0100001B0100001B0100001B010000D0
:1000C0000348854600F080F800480047790C00009E
:1000D0003004002004207146084202D0EFF309806A
:1000E00001E0EFF308807146004A1047C1060000A6
:1000F0000A480B4901600B4901600B4901600B4A3A
:100100000B491160002101600A4880470A480047F6
:10011000FEE7FEE7FEE7FEE7FEE7FEE70001005030
:100120005900000016000000880000002400005064
:10013000A55A000099080000C100000030B50B4628
:10014000014600202022012409E00D46D5409D42B1
:1001500005D31D469540491B254695404019154637
:10016000521E002DF1DC30BDF0B51FB40646002054
:1001700082B005464024019100901BE0019922467F
:100180000F46304600F042F8049A059B801A9941C8
:1001900010D310461946224600F028F8361A8F412F
:1001A0000197224601200021009F00F01FF8381817
:1001B0004D4100902046641E0028DFDC019B009822
:1001C0002946324607B0F0BD064C0125064E05E033
:1001D000E36807CC2B430C3C98471034B442F7D368
:1001E000FFF772FFD80E0000F80E000010B5202AAD
:1001F00004DB0146203A9140002010BD91402023AD
:100200009C1A0346E3401943904010BD10B5202AC4
:1002100004DB0846203AD040002110BD0B46D340F5
:10022000D0402024A21A91400843194610BD000076
:100230001FB509491EC903946C460EC4810F8A007C
:1002400069468A58054951184A68C306DB0E0120E1
:10025000984002434A601FBD840E00000002005017
:10026000F0B507000C46564885B054490162554E1A
:10027000016813D0042211430160102000F0A2F99C
:100280000120C00402905048042503904F48504973
:10029000201888420DD8002004901CE00122114350
:1002A0000160104600F08EF90020022503960290AE
:1002B000ECE7484848492018884203D801206400E8
:1002C000049008E04548454920184942884249D8E9
:1002D0000320A40004900026F64300200090019023
:1002E00021E029460398FFF729FF3D493D4A41187F
:1002F000914217D20222354B014651435B1CCF1865
:100300005B429F420AD8A14201D90B1B00E0631A4D
:10031000B34203D21E000095019203D03249521C11
:100320008A42E8D96D1C212DDBD9049802998003FB
:1003300008430099012249029202891A084301994F
:10034000891E08431E490862042000F03BF9049905
:100350000098491C41430398FFF7F0FE0199484378
:1003600005B0F0BD002F0FD02049154801620420D0
:1003700000F028F91EA0006800901148016A0013DF
:10038000014203D00020EBE71A49EEE7080300D54D
:100390000D4E880301D53046E2E70804800F6A4617
:1003A000105CCA058904C90E891CD20D4143B008EE
:1003B000921C5043FFF7C2FE8000D1E7000001000D
:1003C00000020050001BB70000805101FF1E0AFA16
:1003D000FFE0F5057F0F05FD7FF0FA02C08782FE82
:1003E000FF95E7FFBF77CC00010200006FD6080041
:1003F000010202042EC2000002490A6802430A6098
:10040000704700000002005008B511A0006800907D
:100410001048016A0013014201D0002008BD080302
:1004200001D50D4800E00D488A03F7D40A04920F65
:100430006B469B5CCA058904D20DC90E891C8008D5
:10044000921C59435043FFF779FE800008BD00001D
:10045000010202040002005000805101001BB7009D
:10046000F8B51C4D0446EE68102006401A48844238
:1004700002D84010844200D204462868042738433A
:100480002860102000F09EF82869072108432861A1
:10049000A86900090001A861E868C00705D06100EB
:1004A0000020FFF7DDFE044608E001206100C004E3
:1004B000FFF7D6FEEE680446102006400121022018
:1004C00000F00CF8002E02D12868B84328606008BC
:1004D000F8BD00000002005080F0FA0270B5104C28
:1004E000E568102215402268042632432260E26843
:1004F000D206FCD5226907231A432261A269120998
:1005000012010A43A261216999430143216100F06C
:100510007BF9002D02D12068B043206070BD00003F
:10052000000200507FB5154B78CB03966E4638C657
:10053000840A23061B0E0CD003039B0F104D9B0057
:100540005B19E5B28405E40EA5401C68AC43144376
:100550001C60420E520710D08200920F92006B4630
:100560009A58074B083BD21803015B0FC001C00E1D
:10057000834010689843084310607FBD740E0000EC
:100580001802005070B50D4A0B4905260C4B156832
:100590000024884201D9401A01E0014600200A46A1
:1005A0006A435A619C611E611A69D203FCD51C61C1
:1005B0000028EED170BD0000B81E05000400002028
:1005C00000E000E010B504460749084B05E00A4684
:1005D000491E002A01DC002010BDDA682046904345
:1005E000F5D1012010BD0000804F12000002005024
:1005F000112901D305487047054A80018018826897
:1006000001238B409A438260002070470189FFFFDD
:100610000040005008B5112901D3054808BD054A1E
:100620008001801800900068C840C007C00F08BD56
:100630000189FFFF1040005018B5034615481129E5
:1006400014D2154C9B011B190093032349008B40C6
:10065000002A0CD0012A0AD0022A08D0032A05D188
:1006600000980068184300990860002018BD0098A1
:1006700000689843009B1860012A06D0022AF4D132
:10068000009800688A401043EDE700980068012256
:10069000F8E700000189FFFF00400050112901D355
:1006A00005487047054A80018018826801238B4005
:1006B0001A438260002070470189FFFF004000500C
:1006C000044603A000F03CF9204600F07FFBFEE763
:1006D000496E2048617264204661756C74204861DF
:1006E0006E646C65720A000010B500240322214676
:1006F0000020FFF7A1FF641CE4B2062CF6D310BD66
:1007000010B50420FFF778FE1020FFF75BFF0021F3
:100710000720FFF7E3FE0120FFF76EFE0120FFF741
:1007200051FF0B48FFF79CFE0A4C2046FFF780FD67
:10073000002211462046FFF7F5FE05200007416B19
:10074000890889004163416B03221143416310BD55
:1007500080F0FA02103D80570521020E090751185A
:100760008B680122824013438B60886890438860C5
:1007700070470000F8B51B48002400686F460090E1
:100780003E5D0925F007294603D00020FFF786FFCC
:1007900002E00020FFF72CFF6D1C7608EDB20F2D54
:1007A000F0D300F05BFA0C210020FFF733FF0028A4
:1007B00011D00D210020FFF72DFF00280DD00E21B4
:1007C0000020FFF727FF002809D0641CE4B2032CA7
:1007D000D6D30020F8BD641C02E0241D00E0E41D17
:1007E000E0B2F8BDD40E000006498A691202FCD4BA
:1007F00008600A2804D188690002FCD40D20086032
:10080000704700000000054038B51DA000681D4C71
:100810000090216A2013014201D0002016E0080355
:1008200001D5194800E019488A030FD40A04920F31
:100830006B469B5CCA058904D20DC90E891C8008D1
:10084000921C59435043FFF779FC8000104DA8607B
:1008500021694907490F022903D0880029460C3134
:100860000858A1690907090F491CFFF767FC0949E6
:1008700028604A108018FFF761FC686038BD0000EE
:10088000010202040002005000805101001BB70069
:100890000000002040420F007047000010B50448DF
:1008A000FFF75AFFE1214902024800F005F810BDA8
:1008B0001000000400000540F0B504461C480D4639
:1008C0000FC885B06E460FC61A48416980698A0113
:1008D0000321960F0005070F00202063E160A06848
:1008E00015490840A060012E02D1FFF78DFD01904F
:1008F000002D1BD0B10068464058791CFFF71EFC44
:100900000646690840182946FFF718FC0B49801E67
:10091000884207D9E90070182946FFF70FFC000943
:10092000801E02E0032109070843606205B0F0BDA4
:10093000A40E0000000200500FFFF0FFFFFF0000B8
:100940000FB410B503A9044B044A029800F018F83C
:1009500010BC08BC04B018476B0C00002C00002031
:1009600002E008C8121F08C1002AFAD17047704778
:10097000002001E001C1121F002AFBD170470000D6
:10098000FFB58FB00F460446002606E025280AD0A2
:10099000129A11999047641C761C20780028F5D192
:1009A000304613B0F0BD00250121A14A009500E0BA
:1009B0000543641C23780846203B98401042F7D139
:1009C00020782E2815D1042005436078641C2A283D
:1009D0000AD101CF641C00900BE000990A22514318
:1009E00030394018641C00902078014630390929BC
:1009F000F3D920786C280ED004DC4C2813D06A2858
:100A000012D104E074280ED07A280DD10BE0012019
:100A10004005054307E00121090562780D43824244
:100A200001D16D18641C641C2078864669284AD060
:100A300008DC0028B4D058286DD0632810D0642872
:100A400008D140E070286BD0732812D0752860D090
:100A5000782860D0129A704611999047761CE5E08C
:100A60003878694608720020487202A80190012077
:100A700003E0386801900020C0433F1D69070CD592
:100A8000002500E06D1C00998D420FDA8542F9DBEC
:100A90000199495D0029F5D108E0002500E06D1CB1
:100AA0008542FCDB0199495D0029F8D1761907E000
:100AB000019801990078491C0191129A1199904767
:100AC0006D1EF5D2B2E00A20029000216802400FAC
:100AD000039102280CD001CFC117844600290DDAFA
:100AE0006246084652420021814194462D2008E08A
:100AF000FF1DFF08FF0003CF8446EFE7280504D55C
:100B00002B206A46107401203CE0E8073AD02020F0
:100B1000F7E70A2000E0102000210391029007E08F
:100B2000102002900021042005430820039100902A
:100B30006802400F022810D001CF00218446002017
:100B40000D9028071FD5704670280CD0029A1020EF
:100B5000039B42401A430CD015E0FF1DFF08FF0025
:100B600003CF8446EBE740206A46107401200D90C5
:100B70000CE06046084306D030206A461074704688
:100B8000507402200D907046582804D029A001907E
:100B90000DA80E900DE02CA0F9E76046039B029A89
:100BA000FFF7E2FA019B84469B5C0E9A521E0E925E
:100BB000137060460843F0D10E9805A9081A20303A
:100BC0000190680701D5009801E00120009001998B
:100BD000884203DD01460198081A00E00020002544
:100BE000009006E004A8129A405D119990476D1C90
:100BF000761C0D988542F5DB04E0129A302011999D
:100C00009047761C0099481E00900029F5DC08E00A
:100C10000E980E990078491C0E91129A11999047DE
:100C2000761C0199481E01900029F1DC641CB4E691
:100C300009280100303132333435363738396162B2
:100C40006364656600000000303132333435363776
:100C500038394142434445460000000000207D21D0
:100C6000C900401C8842FCDB704700B50346FFF713
:100C7000BBFD184600BD000059201621484C8822B3
:100C800002E02060216022602368012BF9D1FFF788
:100C900037FD00202060FFF701FEFFF725FD414CE6
:100CA000FFF768FD032809D12046FFF76BFCFFF72B
:100CB00061FD032802D13CA0FFF742FEFFF75AFD79
:100CC000062809D12046FFF75DFCFFF753FD0628F3
:100CD00002D136A0FFF734FEFFF74CFD092809D1F9
:100CE0002046FFF74FFCFFF745FD092802D130A051
:100CF000FFF726FEFFF73EFD022809D12046FFF749
:100D000041FCFFF737FD022802D12AA0FFF718FEA9
:100D1000FFF730FD052809D12046FFF733FCFFF728
:100D200029FD052802D124A0FFF70AFEFFF722FDC6
:100D3000082809D12046FFF725FCFFF71BFD0828EE
:100D400002D11EA0FFF7FCFDFFF714FD012809D119
:100D50002046FFF717FCFFF70DFD012802D118A070
:100D6000FFF7EEFDFFF706FD042809D12046FFF747
:100D700009FCFFF7FFFC042802D112A0FFF7E0FDF9
:100D8000FFF7F8FC07288BD12046FFF7FBFBFFF7A6
:100D9000F1FC072884D10CA0FFF7D2FD80E700000A
:100DA00000010050B0AD0100712E0000772E000050
:100DB000652E0000612E0000732E0000642E0000DE
:100DC0007A2E0000782E0000632E000010B5044635
:100DD000016810A0FFF7B4FD11A06168FFF7B0FD36
:100DE00012A0A168FFF7ACFD13A0E168FFF7A8FD12
:100DF00014A02169FFF7A4FD15A06169FFF7A0FD0C
:100E000016A0A169FFF79CFD17A0E169FFF798FD07
:100E100010BD0000723020203D20307825780A0077
:100E2000723120203D20307825780A00723220204F
:100E30003D20307825780A00723320203D2030781C
:100E400025780A00723132203D20307825780A005A
:100E50006C7220203D20307825780A0070632020B5
:100E60003D20307825780A00707372203D2030785C
:100E700025780A0000000000040000000C000000BB
:100E80002400000000000000040000002C0000000E
:100E90000000000000000000040000002C00000022
:100EA00000000000001BB700000000000000000070
:100EB00000805101001BB70000000000000000008E
:100EC00000805101001BB70000000000000000007E
:100ED000008051013B3D3E00F80E00000000002064
:100EE0003000000060090000280F000030000020E2
:100EF000000400007009000080F0FA0232000000D7
:100F000080F0FA02001BB7000000000080F0FA0237
:100F1000102700000000000000000000000000009A
:080F20000080510100000000F7
:04000005000000F106
:00000001FF
